:100000000C948C000C94A9000C94A9000C94A900E9
:100010000C94A9000C94A9000C94A9000C94A900BC
:100020000C94A9000C94A9000C94A9000C94A900AC
:100030000C94A9000C94A9000C94A9000C94A9009C
:100040000C94A9000C94A9000C94A9000C94A9008C
:100050000C94A9000C94A9000C94A9000C94A9007C
:100060000C94A9000C94A900084AD73B3BCE016E22
:1000700084BCBFFDC12F3D6C74319ABD56833DDAFF
:100080003D00C77F11BED9E4BB4C3E916BAAAABE0E
:10009000000000803F07634236B79BD8A71A396833
:1000A0005618AEBAAB558C1D3CB7CC5763BD6DED41
:1000B000FD753EF6177231BF000000803F0800005A
:1000C00000BE922449123EABAAAA2ABECDCCCC4C8B
:1000D0003E00000080BEABAAAAAA3E00000000BFFE
:1000E000000000803F0000000000084178D3BB43BF
:1000F00087D1133D190E3CC3BD4282AD2B3E68EC47
:100100008276BED98FE1A93E4C80EFFFBE01C4FFCD
:100110007F3F00000000000011241FBECFEFD8E099
:10012000DEBFCDBF11E0A0E0B1E0EAE1F1E202C044
:1001300005900D92A434B107D9F721E0A4E4B1E011
:1001400001C01D92A83DB207E1F70E94B0080C94CF
:100150008B100C940000CF93C82F8A3029F460E0F4
:1001600070E08DE00E94AB00E0ECF0E0808185FF64
:10017000FDCFC093C60080E090E0CF910895CF936B
:10018000BC01E0ECF0E090819923ECF7C091C6004F
:100190008C2F0E94AB008C2F90E0CF91089580931C
:1001A000BB0084E88093BC00ECEBF0E08081882306
:1001B000ECF7089584EA8093BC00ECEBF0E08081DA
:1001C0008823ECF708951092B9008CE08093B80072
:1001D00084E08093BC00089584EC8093BC00ECEB39
:1001E000F0E080818823ECF78091BB00089584E8DB
:1001F0008093BC00ECEBF0E080818823ECF78091E9
:10020000BB0008951F93CF93DF930E94DA008CE325
:100210000E94CF0080E00E94CF0080E70E94CF00C4
:10022000CCEBD0E014E918830E94DA008CE30E9442
:10023000CF0081E00E94CF0080EA0E94CF001883A7
:10024000DF91CF911F9108951F93CF93DF930E9469
:10025000DA008CE30E94CF0082E00E94CF0081E0B0
:100260000E94CF00CCEBD0E014E918838FE39CE927
:100270000197F1F700C000000E94DA008DE30E94B0
:10028000CF000E94EC0010925801809359010E9407
:10029000EC002091580130915901282B30935901DD
:1002A000209358010E94EC00109254018093550154
:1002B0000E94EC002091540130915501282B30937D
:1002C0005501209354010E94EC0010925601809336
:1002D00057010E94F7002091560130915701282BB9
:1002E00030935701209356011883DF91CF911F91CE
:1002F000089587E68093C400E1ECF0E08081886097
:100300008083E2ECF0E0808186608083089584EF52
:1003100091E0EFE3FFE13197F1F700C000000197B2
:10032000C1F708950E94DA0086EA0E94CF0083E3B5
:100330000E94CF000E94DA0087EA0E94CF000E944C
:10034000EC0010927E0180937F010E94DA0086EA21
:100350000E94CF0082E30E94CF000E94DA0087EA69
:100360000E94CF000E94EC0020917E0130917F011D
:10037000282B30937F0120937E010E94DA0086EAC9
:100380000E94CF0085E30E94CF000E94DA0087EA36
:100390000E94CF000E94EC001092680180936901D6
:1003A0000E94DA0086EA0E94CF0084E30E94CF0018
:1003B0000E94DA0087EA0E94CF000E94EC002091A0
:1003C000680130916901282B3093690120936801FD
:1003D0000E94DA0086EA0E94CF0087E30E94CF00E5
:1003E0000E94DA0087EA0E94CF000E94EC0010927F
:1003F0008801809389010E94DA0086EA0E94CF007A
:1004000086E30E94CF000E94DA0087EA0E94CF00B4
:100410000E94F7002091880130918901282B3093A8
:1004200089012093880184E98093BC0008950E948B
:10043000DA0086EA0E94CF008DE20E94CF0088E0B9
:100440000E94CF0084E98093BC0008954F925F9290
:100450006F927F928F929F92AF92BF92CF92DF92D4
:10046000EF92FF920F931F93809076019090770107
:10047000A0907801B090790120EA821A2FE0920AC8
:10048000A108B10880926A0190926B01A0926C0160
:10049000B0926D01A5019401C501B4010E943A0D0D
:1004A0002B013C01992334F42FEF420E2FE0521E12
:1004B000611C711C032E3CE075946794579447941B
:1004C0003A95D1F7302DE091BC0160919E01709179
:1004D0009F018091A0019091A101A30192010E942E
:1004E0003A0D8B019C01992324F40150184F2F4F92
:1004F0003F4F680179010B2EBBE0F594E794D79448
:10050000C794BA95D1F7B02D60919601709197017B
:100510008091980190919901A50194010E943A0D52
:100520008B019C01992324F40150184F2F4F3F4F0A
:10053000D901C801072E7BE0B595A79597958795BA
:100540007A95D1F7702D8C0D9D1DAE1DBF1D40916C
:100550006001509161016091620170916301440FEB
:10056000551F661F771F440F551F661F771F840F87
:10057000951FA61FB71F0E2E04C0880F991FAA1F14
:10058000BB1F0A94D2F70296A11DB11D6C017D011B
:10059000BB232CF423E0C20ED11CE11CF11CF5940A
:1005A000E794D794C794F594E794D794C794C092EE
:1005B000CA01D092CB01E092CC01F092CD016091C2
:1005C0009A0170919B0180919C0190919D01A501E0
:1005D00094010E943A0D4B015C01992334F42FEFF2
:1005E000820E2FE1921EA11CB11C072E7DE0B59456
:1005F000A794979487947A95D1F7702D8092920161
:1006000090929301A0929401B09295016091B801EB
:100610007091B9018091BA019091BB01A30192013F
:100620000E943A0D2B013C0199232CF42FEF420E2E
:10063000521E611C711CC301BB2797FDB095AB2FE7
:1006400080936E0190936F01A0937001B09371013C
:10065000880D991DAA1DBB1D0296A11DB11DAC01DF
:10066000BD01BB2324F44D5F5F4F6F4F7F4FDB0114
:10067000CA01B595A79597958795B595A79597952F
:1006800087958093A6019093A701A093A801B093AA
:10069000A9019C01AD0130584F4F5F4F60917A0125
:1006A00070917B0180917C0190917D010E943A0DB7
:1006B0004B015C01072E7FE0B694A7949794879432
:1006C0007A95D1F7702D8092AE019092AF01A092F1
:1006D000B001B092B1014090500150905101609032
:1006E000520170905301A30192012C193D094E094A
:1006F0005F0980E593ECA0E0B0E0BC01CD0104C04F
:100700009595879577956795EA95D2F70E943A0D6A
:100710006093B4017093B5018093B6019093B701D3
:1007200099238CF0660F771F881F991FA5019401EC
:100730000E944A0D20935001309351014093520181
:100740005093530175C0D301C201772024F4815026
:100750009F4FAF4FBF4F692F7A2F8B2F992787FD60
:100760009A959B01AC010E943A0D9B01AC01AEED44
:10077000BBE00E948B0D6B017C0199232CF42FEFC1
:10078000C20ED21EE11CF11C6701FF24D7FCF094BD
:10079000EF2CC0929201D0929301E0929401F092DA
:1007A0009501A3E4B3EEA30192010E94990D4B01C0
:1007B0005C0199232CF42FEF820E921EA11CB11C18
:1007C000C501BB2797FDB095AB2F80936E01909329
:1007D0006F01A0937001B09371018C0D9D1DAE1D32
:1007E000BF1D8153914FAF4FBF4FAC01BD0122F4EC
:1007F0004D5F5F4F6F4F7F4F759567955795479545
:1008000075956795579547954093A6015093A70115
:100810006093A8017093A901440D551D661D771DB5
:1008200040935001509351016093520170935301D2
:100830001F910F91FF90EF90DF90CF90BF90AF90FE
:100840009F908F907F906F905F904F9008951F932F
:10085000CF93DF930E94DA008EEE0E94CF0084EFE8
:100860000E94CF0084E30E94CF00CCEBD0E014E9DB
:1008700018831092BC011092BD011092BE0110921B
:10088000BF018FE39CE90197F1F700C000000E94CF
:10089000DA008EEE0E94CF0086EF0E94CF000E9409
:1008A000DA008FEE0E94CF000E94EC0090E0A0E002
:1008B000B0E0BA2FA92F982F8827809350019093EA
:1008C0005101A0935201B09353010E94EC0040915A
:1008D0005001509151016091520170915301480FA4
:1008E000511D611D711D762F652F542F4427409394
:1008F00050015093510160935201709353010E9433
:10090000F700409150015091510160915201709156
:100910005301480F511D611D711D2091BC01309183
:10092000BD0188E090E0821B930B04C0759567952C
:10093000579547958A95D2F74093500150935101AE
:1009400060935201709353011883DF91CF911F91EF
:1009500008950E94DA008EEE0E94CF008AEA0E947B
:10096000CF000E94DA008FEE0E94CF000E94EC00C0
:1009700090E0982F8827092E000CAA0BBB0B8093C0
:10098000600190936101A0936201B09363010E94A2
:10099000EC004091600150916101609162017091A1
:1009A0006301482B409360015093610160936201A1
:1009B000709363010E94EC0090E0982F8827092E25
:1009C000000CAA0BBB0B8093960190939701A09308
:1009D0009801B09399010E94EC00409196015091CA
:1009E00097016091980170919901482B409396016D
:1009F0005093970160939801709399010E94EC00C5
:100A000090E0982F8827092E000CAA0BBB0B80932F
:100A10009A0190939B01A0939C01B0939D010E9429
:100A2000EC0040919A0150919B0160919C01709162
:100A30009D01482B40939A0150939B0160939C0128
:100A400070939D010E94EC0090E0982F8827092E5A
:100A5000000CAA0BBB0B80937A0190937B01A093AF
:100A60007C01B0937D010E94EC0040917A0150918D
:100A70007B0160917C0170917D01482B40937A014C
:100A800050937B0160937C0170937D010E94EC0088
:100A900090E0982F8827092E000CAA0BBB0B80939F
:100AA000720190937301A0937401B09375010E9439
:100AB000EC0040917201509173016091740170914A
:100AC0007501482B40937201509373016093740138
:100AD000709375010E94EC0090E0982F8827092EF2
:100AE000000CAA0BBB0B8093640190936501A0934B
:100AF0006601B09367010E94EC004091640150913F
:100B000065016091660170916701482B4093640113
:100B10005093650160936601709367010E94EC0039
:100B200090E0982F8827092E000CAA0BBB0B80930E
:100B3000B8019093B901A093BA01B093BB010E9490
:100B4000EC004091B8015091B9016091BA017091E7
:100B5000BB01482B4093B8015093B9016093BA018F
:100B60007093BB010E94EC0090E0982F8827092E1B
:100B7000000CAA0BBB0B80939E0190939F01A09346
:100B8000A001B093A1010E94EC0040919E01509100
:100B90009F016091A0017091A101482B40939E019B
:100BA00050939F016093A0017093A1010E94EC00FB
:100BB00090E0982F8827092E000CAA0BBB0B80937E
:100BC0008E0190938F01A0939001B09391010E94A8
:100BD000EC0040918E0150918F01609190017091D5
:100BE0009101482B40938E0150938F0160939001A7
:100BF000709391010E94EC0090E0982F8827092EB5
:100C0000000CAA0BBB0B8093C0019093C101A09371
:100C1000C201B093C3010E94EC004091C001509109
:100C2000C1016091C2017091C301482B4093C00182
:100C30005093C1016093C2017093C3010E94EC0004
:100C400090E0982F8827092E000CAA0BBB0B8093ED
:100C50005A0190935B01A0935C01B0935D010E94E7
:100C6000F70040915A0150915B0160915C017091D5
:100C70005D01482B40935A0150935B0160935C01E6
:100C800070935D0184E98093BC0008951F93CF9316
:100C9000DF930E94DA008EEE0E94CF0084EF0E9464
:100CA000CF008EE20E94CF00CCEBD0E014E9188395
:100CB0008FE59DE60197F1F700C000000E94DA0081
:100CC0008EEE0E94CF0086EF0E94CF000E94DA00D5
:100CD0008FEE0E94CF000E94EC0090E0982F8827B2
:100CE000092E000CAA0BBB0B80934C0190934D0175
:100CF000A0934E01B0934F010E94F70040914C0128
:100D000050914D0160914E0170914F01482B4093DD
:100D10004C0150934D0160934E0170934F01188325
:100D2000DF91CF911F910895CF92DF92EF92FF92C2
:100D30000F931F9340914C0150914D0160914E01D2
:100D400070914F018091640190916501A0916601BD
:100D5000B09167019A01AB01281B390B4A0B5B0B61
:100D6000609172017091730180917401909175018D
:100D70000E943A0D8B019C01992324F401501048E4
:100D80002F4F3F4F680179010B2EBFE0F594E79498
:100D9000D794C794BA95D1F7B02DC0929201D09252
:100DA0009301E0929401F09295018091C00190919D
:100DB000C101A091C201B091C301BC01CD01052EBA
:100DC0005BE0660F771F881F991F5A95D1F7502D4A
:100DD00000915A0110915B0120915C0130915D01FD
:100DE000A90198012C0D3D1D4E1D5F1D2093A601EC
:100DF0003093A7014093A8015093A9010E946C0D64
:100E000020936E0130936F014093700150937101F4
:100E1000D701C601820F931FA41FB51F80937601CF
:100E200090937701A0937801B0937901AC01BD0153
:100E3000485F5F4F6F4F7F4FDB01CA011AF40F9677
:100E4000A11DB11D689413F8B595A7959795879541
:100E50001694D1F780934C0190934D01A0934E01CD
:100E6000B0934F011F910F91FF90EF90DF90CF90C3
:100E700008950E94DA0080ED0E94CF0086E10E9472
:100E8000CF0088E10E94CF0084E98093BC000895E0
:100E90000E94DA0080ED0E94CF008DE10E94CF0019
:100EA0000E94DA0081ED0E94CF000E94EC001092B7
:100EB000B2018093B3010E94EC002091B201309105
:100EC000B301282B3093B3012093B2010E94EC00B0
:100ED00010925E0180935F010E94EC0020915E0100
:100EE00030915F01282B30935F0120935E010E94B7
:100EF000EC001092C4018093C5010E94F70020917C
:100F0000C4013091C501282B3093C5012093C40141
:100F100084E98093BC0008950E9446060E9427043D
:100F20000895CF92DF92EF92FF92609158017091F5
:100F30005901072E000C880B990B0E94B80A6B010F
:100F40007C016091560170915701072E000C880BAF
:100F5000990B0E94B80AA70196010E94E50920E0BA
:100F600030E044E353E40E94730B20ED3FE049E49A
:100F700050E40E94440A20E030E044E353E40E943D
:100F800066096093CE017093CF018093D001909356
:100F9000D10160917E0170917F01072E000C880BBA
:100FA000990B0E94B80A2FE632E143E85BE30E9406
:100FB000730B6093C6017093C7018093C80190932F
:100FC000C9016091680170916901072E000C880BBE
:100FD000990B0E94B80A2FE632E143E85BE30E94D6
:100FE000730B60938A0170938B0180938C019093B3
:100FF0008D016091880170918901072E000C880B8A
:10100000990B0E94B80A2FE632E143E85BE30E94A5
:10101000730B6093AA017093AB018093AC01909322
:10102000AD010E9494060E94260260914C017091CD
:101030004D0180914E0190914F010E94B80A20E02D
:1010400030E040E251E40E94440A6093440170930E
:101050004501809346019093470160915001709142
:10106000510180915201909153010E94B80A209140
:1010700000013091010140910201509103010E9451
:10108000440A2FEC39ED42E45EE30E94E00B9B0141
:10109000AC0160E070E080E89FE30E94650920E019
:1010A0003AE24DE257E40E94730B28E439EF41E540
:1010B00050E40E94730B6093480170934901809340
:1010C0004A0190934B016091B2017091B301072ED8
:1010D000000C880B990B0E94B80A20E030E046E62D
:1010E00051E40E94440A60938401709385018093C7
:1010F00086019093870160915E0170915F01072ED8
:10110000000C880B990B0E94B80A20E030E046E6FC
:1011100051E40E94440A6093A2017093A30180935A
:10112000A4019093A5016091C4017091C501072E9F
:10113000000C880B990B0E94B80A20E030E046E6CC
:1011400051E40E94440A609380017093810180936E
:10115000820190938301FF90EF90DF90CF900895EC
:101160000E947901E2EDF1E084E091E093838283D3
:10117000918380830E94E3000E9487012FEF81EE1C
:1011800094E0215080409040E1F700C000000E94B0
:1011900002010E9417020E9439072FEF81EE94E0AE
:1011A000215080409040E1F700C00000C2E1D1E052
:1011B0000E9424010E9492010E94A9040E948C07AF
:1011C0000E9448070E949107809155018F9380915A
:1011D00054018F938091D1018F938091D0018F938F
:1011E0008091CF018F938091CE018F938091830165
:1011F0008F93809182018F93809181018F93809151
:1012000080018F938091A5018F938091A4018F938A
:101210008091A3018F938091A2018F938091870188
:101220008F93809186018F93809185018F93809118
:1012300084018F93809147018F93809146018F9312
:10124000809145018F93809144018F9380914B0150
:101250008F9380914A018F93809149018F93809160
:1012600048018F938091AD018F938091AC018F9352
:101270008091AB018F938091AA018F9380918D0112
:101280008F9380918C018F9380918B018F938091AC
:101290008A018F938091C9018F938091C8018F93A8
:1012A0008091C7018F938091C6018F93DF93CF9375
:1012B0000E94AD0D8DB79EB788960FB6F8949EBF6D
:1012C0000FBE8DBF0E94870173CF5058BB27AA273E
:1012D0000E947D090C94310B0E94230B38F00E9470
:1012E0002A0B20F039F49F3F19F426F40C94F90AE4
:1012F0000EF4E095E7FB0C94F30AE92F0E94420BF1
:1013000058F3BA17620773078407950720F079F43A
:10131000A6F50C94640B0EF4E0950B2EBA2FA02DBD
:101320000B01B90190010C01CA01A0011124FF2792
:10133000591B99F0593F50F4503E68F11A16F0408D
:10134000A22F232F342F4427585FF3CF469537958C
:101350002795A795F0405395C9F77EF41F16BA0B51
:10136000620B730B840BBAF09150A1F0FF0FBB1FFF
:10137000661F771F881FC2F70EC0BA0F621F731F48
:10138000841F48F4879577956795B795F7959E3FA5
:1013900008F0B0CF9395880F08F09927EE0F979536
:1013A000879508950E94230B60F080E891E009F48E
:1013B0009EEF0E942A0B28F040E851E071F45EEFA6
:1013C0000CC00C94F90A0C94640BE92FE0780E948D
:1013D000420B40F3092E052AB1F3261737074807B9
:1013E000590738F00E2E07F8E02569F0E025E06493
:1013F0000AC0EF6307F8009407FADB01B9019D0109
:10140000DC01CA01AD01EF930E945B0A0E94310B1F
:101410000E94150A5F91552339F02BED3FE049E416
:1014200050FD49EC0C9466090895DF93DD27B92F30
:10143000BF7740E85FE31616170648075B0718F406
:10144000D92F0E946B0B9F938F937F936F930E9472
:10145000300CE8E6F0E00E94FC0A0E94310B2F916C
:101460003F914F915F910E94860BDD2351F0905880
:10147000A2EA2AED3FE049EC5FE3D0785D270E94C5
:101480007D09DF910C94310B0E94580A0C94310BAA
:101490000E942A0B58F00E94230B40F029F45F3F72
:1014A00029F00C94F30A51110C94650B0C94F90A71
:1014B0000E94420B68F39923B1F3552391F3951BD6
:1014C000550BBB27AA2762177307840738F09F5F65
:1014D0005F4F220F331F441FAA1FA9F335D00E2ED2
:1014E0003AF0E0E832D091505040E695001CCAF73F
:1014F0002BD0FE2F29D0660F771F881FBB1F261702
:1015000037074807AB07B0E809F0BB0B802DBF01D8
:10151000FF2793585F4F3AF09E3F510578F00C94A7
:10152000F30A0C94650B5F3FE4F3983ED4F3869581
:1015300077956795B795F7959F5FC9F7880F911DC8
:101540009695879597F90895E1E0660F771F881FB4
:10155000BB1F621773078407BA0720F0621B730B67
:10156000840BBA0BEE1F88F7E0950895E89409C044
:1015700097FB3EF490958095709561957F4F8F4FC6
:101580009F4F9923A9F0F92F96E9BB279395F695DC
:10159000879577956795B795F111F8CFFAF4BB0F5A
:1015A00011F460FF1BC06F5F7F4F8F4F9F4F16C0BE
:1015B000882311F096E911C0772321F09EE8872F48
:1015C000762F05C0662371F096E8862F70E060E004
:1015D0002AF09A95660F771F881FDAF7880F96957D
:1015E000879597F9089597F99F6780E870E060E024
:1015F00008959FEF80EC0895DF93CF931F930F938F
:10160000FF92EF92DF927B018C01689406C0DA2E84
:10161000EF010E94860BFE01E894A591259135917A
:1016200045915591A6F3EF010E947D09FE019701B6
:10163000A801DA9469F7DF90EF90FF900F911F9166
:10164000CF91DF91089500240A9416161706180604
:101650000906089500240A941216130614060506B6
:101660000895092E0394000C11F4882352F0BB0F47
:1016700040F4BF2B11F460FF04C06F5F7F4F8F4FAA
:101680009F4F089557FD9058440F551F59F05F3FE5
:1016900071F04795880F97FB991F61F09F3F79F094
:1016A00087950895121613061406551FF2CF469516
:1016B000F1DF08C0161617061806991FF1CF869598
:1016C0007105610508940895E894BB27662777277C
:1016D000CB0197F908959B01AC0160E070E080E8D0
:1016E0009FE30C94440A0E94860B0C94310B0E94D9
:1016F000230B38F00E942A0B20F0952311F00C9454
:10170000F30A0C94F90A11240C94650B0E94420B05
:1017100070F3959FC1F3950F50E0551F629FF00144
:10172000729FBB27F00DB11D639FAA27F00DB11D5D
:10173000AA1F649F6627B00DA11D661F829F2227E6
:10174000B00DA11D621F739FB00DA11D621F839F6D
:10175000A00D611D221F749F3327A00D611D231F43
:10176000849F600D211D822F762F6A2F11249F5791
:1017700050409AF0F1F088234AF0EE0FFF1FBB1F94
:10178000661F771F881F91505040A9F79E3F510553
:1017900080F00C94F30A0C94650B5F3FE4F3983EE1
:1017A000D4F3869577956795B795F795E7959F5FFD
:1017B000C1F7FE2B880F911D9695879597F908958F
:1017C000FA01EE0FFF1F309621053105A1F16115D9
:1017D000710561F48038BFE39B0749F16894903844
:1017E000810561F08038BFEF9B0741F099234AF5EE
:1017F000FF3FE1053105210519F1E8940894E795CB
:10180000D901AA2329F4AB2FBE2FF85FD0F310C063
:10181000FF5F70F4A695E0F7F73950F019F0FF3A42
:1018200038F49F779F930DD00F9007FC9058089540
:1018300046F00C94F90A60E070E080E89FE30895B8
:101840004FE79F775F934F933F932F930E94B00C86
:101850002F913F914F915F910E94730B0C943C0C20
:101860009B01AC010C94730B29F416F00C94F30A51
:101870000C94640B0C94F90A0E944A0BA8F3963856
:10188000A0F707F80F92E8942BE33AEA48EB5FE7FA
:101890000E94890B0F920F920F924DB75EB70F9275
:1018A0000E94F80CE5E9F0E00E94FC0A4F915F917C
:1018B000EF91FF91E595EE1FFF1F49F0FE57E0689D
:1018C0004427EE0F441FFA95E1F74195550B0E940E
:1018D000720C0F9007FE0C946B0B08950C94F30A96
:1018E0000C942C0D0E944A0BD8F39923C9F3940F42
:1018F000511DA3F39150504094F059F0882332F0D9
:10190000660F771F881F91505040C1F79E3F5105C9
:101910002CF7880F911D9695879597F908955F3F4D
:10192000ACF0983E9CF0BB27869577956795B79568
:1019300008F4B1609395C1F7BB0F58F711F460FF3D
:10194000E8CF6F5F7F4F8F4F9F4FE3CF0C94650BB6
:1019500016F00C942C0D0C94F90A68940C94F30A6C
:101960000E944A0BA8F39923C1F3AEF3DF93CF9300
:101970001F930F93FF92C92FDD2788232AF0219709
:10198000660F771F881FDAF720E030E040E85FEB52
:101990009FE3883920F0803E38F021968F770E94AF
:1019A0006609EDEBF0E004C00E946609EAEEF0E0A3
:1019B0000E94FC0A8B01BE01EC01FB2E6F577109DE
:1019C0007595771F880B990B0E94B80A28E132E7BA
:1019D00041E35FE30E94860BAF2D9801AE01FF90BB
:1019E0000F911F91CF91DF910E947D090C94310BD3
:1019F000FA01DC01AA0FBB1F9B01AC01BF5728F401
:101A0000222733274427507820C0B75190F4AB2FBA
:101A10000024469537952795011CA395D2F3002005
:101A200071F0220F331F441FB395DAF30ED00C94DC
:101A3000650961307105A0E88A07B94630F49B0159
:101A4000AC016627772788279078309621F020838D
:101A500031834283538308959F3F31F0915020F4A6
:101A6000879577956795B795880F911D969587957A
:101A700097F90895DB018F939F930E948B0DBF917F
:101A8000AF91A29F800D911DA39F900DB29F900DCD
:101A900011240895A1E21A2EAA1BBB1BFD010DC043
:101AA000AA1FBB1FEE1FFF1FA217B307E407F5070E
:101AB00020F0A21BB30BE40BF50B661F771F881FEA
:101AC000991F1A9469F760957095809590959B0180
:101AD000AC01BD01CF010895052E97FB1EF40094C3
:101AE0000E94830D57FD07D00E944A0D07FC03D0CA
:101AF0004EF40C94830D50954095309521953F4FB1
:101B00004F4F5F4F089590958095709561957F4FE9
:101B10008F4F9F4F08950E949E0DA59F900DB49FDB
:101B2000900DA49F800D911D11240895B7FF0C9472
:101B30008B0D0E948B0D821B930B0895A29FB00109
:101B4000B39FC001A39F700D811D1124911DB29FF1
:101B5000700D811D1124911D0895A0E0B0E0E3EB0C
:101B6000FDE00C946410AE014B5F5F4FFA01619190
:101B70007191AF018091D4019091D5010E94C30D64
:101B8000E2E00C948010ABE0B0E0E9ECFDE00C94F6
:101B900054106C017B018A01FC011782168283813B
:101BA00081FFCCC1CE0101963C01F6019381F70182
:101BB00093FD859193FF81917F01882309F4BAC138
:101BC000853239F493FD859193FF81917F018532B0
:101BD00029F4B60190E00E94BA0FE7CF912C212C96
:101BE000312CFFE1F315D8F08B3279F038F48032E4
:101BF00079F08332A1F4232D20611DC08D3261F074
:101C0000803369F4232D216016C0832D8260382E25
:101C1000E32DE4603E2E2AC0F32DF8601DC037FC92
:101C20002DC020ED280F2A3040F08E32B9F436FC5A
:101C300081C1232D2064322E19C036FE06C08AE0F1
:101C4000989E200D1124922E11C0EAE02E9E200DA8
:101C50001124222EF32DF0623F2E08C08C3621F481
:101C6000832D8068382E02C0883641F4F70193FD39
:101C7000859193FF81917F018111B3CF982F9F7D33
:101C80009554933028F40C5F1F4F9FE399830DC048
:101C9000833631F0833771F0833509F059C021C0A4
:101CA000F801808189830E5F1F4F88248394912CD3
:101CB000530113C02801F2E04F0E511CF801A0801F
:101CC000B18036FE03C0692D70E002C06FEF7FEF78
:101CD000C5010E94AF0F4C018201F32DFF773F2E0B
:101CE00016C0280122E0420E511CF801A080B180EC
:101CF00036FE03C0692D70E002C06FEF7FEFC501B3
:101D00000E94A40F4C01F32DF0683F2E820133FC9A
:101D10001BC0822D90E088169906B0F4B60180E2CF
:101D200090E00E94BA0F2A94F4CFF50137FC859118
:101D300037FE81915F01B60190E00E94BA0F211039
:101D40002A9421E0821A91088114910471F7E8C065
:101D5000843611F0893641F5F80137FE07C06081FD
:101D60007181828193810C5F1F4F08C060817181F6
:101D7000072E000C880B990B0E5F1F4FF32DFF767B
:101D80003F2E97FF09C090958095709561957F4F84
:101D90008F4F9F4FF0683F2E2AE030E0A3010E9452
:101DA000F60F882E861845C0853731F4232D2F7EF7
:101DB000B22E2AE030E025C0932D997FB92E8F36C0
:101DC000C1F018F4883579F0B5C0803719F088373C
:101DD00021F0B0C0E92FE061BE2EB4FE0DC0FB2D96
:101DE000F460BF2E09C034FE0AC0292F2660B22E2F
:101DF00006C028E030E005C020E130E002C020E16C
:101E000032E0F801B7FE07C0608171818281938161
:101E10000C5F1F4F06C06081718180E090E00E5F13
:101E20001F4FA3010E94F60F882E8618FB2DFF7707
:101E30003F2E36FE0DC0232D2E7FA22E891458F47E
:101E400034FE0BC032FC09C0832D8E7EA82E05C047
:101E5000B82CA32C03C0B82C01C0B92CA4FE0FC011
:101E6000FE01E80DF11D8081803321F49A2D997EC9
:101E7000A92E09C0A2FE06C0B394B39404C08A2D53
:101E8000867809F0B394A3FC11C0A0FE06C0B2147A
:101E900088F4280C922C9B180EC0B21460F4B60182
:101EA00080E290E00E94BA0FB394F7CFB21418F416
:101EB0002B1802C0982C212CA4FE10C0B60180E380
:101EC00090E00E94BA0FA2FE17C0A1FC03C088E7F1
:101ED00090E002C088E590E0B6010CC08A2D8678BB
:101EE00059F0A1FE02C08BE201C080E2A7FC8DE2A6
:101EF000B60190E00E94BA0F891438F4B60180E36D
:101F000090E00E94BA0F9A94F7CF8A94F301E80DFB
:101F1000F11D8081B60190E00E94BA0F8110F5CFCB
:101F2000222009F442CEB60180E290E00E94BA0F6E
:101F30002A94F6CFF6018681978102C08FEF9FEF3A
:101F40002B96E2E10C947010FC01059061507040FA
:101F50000110D8F7809590958E0F9F1F0895FC0172
:101F60006150704001900110D8F7809590958E0FC8
:101F70009F1F08950F931F93CF93DF93FB0123813E
:101F800021FD03C08FEF9FEF2CC022FF16C04681BA
:101F90005781248135814217530744F4A081B181D0
:101FA0009D012F5F3F4F318320838C9326813781A2
:101FB0002F5F3F4F3783268314C08B01EC01FB0159
:101FC0000084F185E02D0995892BE1F6D80116965C
:101FD0008D919C911797019617969C938E931697C7
:101FE000CE01DF91CF911F910F910895FA01AA2799
:101FF000283051F1203181F1E8946F936E7F6E5F4C
:102000007F4F8F4F9F4FAF4FB1E03ED0B4E03CD0F9
:10201000670F781F891F9A1FA11D680F791F8A1FDC
:10202000911DA11D6A0F711D811D911DA11D20D043
:1020300009F468943F912AE0269F11243019305DFD
:102040003193DEF6CF010895462F4770405D4193EE
:10205000B3E00FD0C9F7F6CF462F4F70405D4A333B
:1020600018F0495D31FD4052419302D0A9F7EACF03
:10207000B4E0A6959795879577956795BA95C9F732
:1020800000976105710508959B01AC010A2E069425
:102090005795479537952795BA95C9F7620F731FDE
:1020A000841F951FA01D08952F923F924F925F921B
:1020B0006F927F928F929F92AF92BF92CF92DF9258
:1020C000EF92FF920F931F93CF93DF93CDB7DEB7BD
:1020D000CA1BDB0B0FB6F894DEBF0FBECDBF099451
:1020E0002A88398848885F846E847D848C849B84A8
:1020F000AA84B984C884DF80EE80FD800C811B81B6
:10210000AA81B981CE0FD11D0FB6F894DEBF0FBEE4
:0A211000CDBFED010895F894FFCF54
:10211A00000EC4470000000300000000AB00BF002F
:10212A000000252E326620252E326620252E3266A4
:10213A0020252E326620252E326620252E32662054
:10214A00252E326620252E326620252E326620253F
:04215A00640A000013
:00000001FF
